:020000020000fc
:0100000001fe
:0100010003fb
:0100020001fc
:0100030002fa
:0100040000fb
:0100050001f9
:0100060000f9
:0100070000f8
:0100080003f4
:0100090002f4
:01000a0000f5
:01000b0000f4
:01000c0001f2
:01000d0002f0
:01000e0001f0
:01000f0003ed
:0100100002ed
:0100110002ec
:0100120002eb
:0100130002ea
:0100140001ea
:0100150003e7
:0100160000e9
:0100170001e7
:0100180000e7
:0100190001e5
:01001a0002e3
:01001b0002e2
:01001c0003e0
:01001d0002e0
:01001e0002df
:01001f0001df
:0100200003dc
:0100210003db
:0100220001dc
:0100230001db
:0100240002d9
:0100250002d8
:0100260003d6
:0100270000d8
:0100280003d4
:0100290001d5
:01002a0003d2
:01002b0000d4
:01002c0003d0
:01002d0001d1
:01002e0003ce
:01002f0001cf
:0100300000cf
:0100310003cb
:0100320003ca
:0100330000cc
:0100340002c9
:0100350002c8
:0100360000c9
:0100370000c8
:0100380003c4
:0100390003c3
:01003a0002c3
:01003b0000c4
:01003c0001c2
:01003d0002c0
:01003e0002bf
:01003f0003bd
:0100400000bf
:0100410003bb
:0100420003ba
:0100430003b9
:0100440003b8
:0100450001b9
:0100460001b8
:0100470000b8
:0100480003b4
:0100490000b6
:01004a0002b3
:01004b0002b2
:01004c0002b1
:01004d0002b0
:01004e0003ae
:01004f0002ae
:0100500003ac
:0100510000ae
:0100520003aa
:0100530001ab
:0100540003a8
:0100550003a7
:0100560001a8
:0100570001a7
:0100580000a7
:0100590001a5
:01005a0003a2
:01005b0000a4
:01005c0001a2
:01005d0002a0
:01005e0001a0
:01005f00019f
:01006000009f
:01006100019d
:01006200019c
:01006300029a
:010064000299
:01006500009a
:010066000198
:010067000098
:010068000097
:010069000393
:01006a000392
:01006b000193
:01006c000093
:01006d000092
:01006e000190
:01006f00038d
:01007000008f
:01007100038b
:01007200008d
:010073000389
:01007400018a
:01007500008a
:010076000089
:010077000088
:010078000384
:010079000086
:01007a000184
:01007b000381
:01007c000083
:01007d000280
:01007e000081
:01007f000080
:01008000037c
:01008100007e
:01008200027b
:01008300027a
:010084000279
:010085000179
:010086000079
:010087000078
:010088000374
:010089000076
:01008a000174
:01008b000272
:01008c000370
:01008d00036f
:01008e000170
:01008f00036d
:01009000016e
:01009100016d
:01009200026b
:01009300026a
:01009400016a
:01009500006a
:010096000366
:010097000365
:010098000067
:010099000066
:01009a000263
:01009b000163
:01009c000360
:01009d000161
:01009e000160
:01009f00015f
:0100a000015e
:0100a100035b
:0100a200025b
:0100a300005c
:0100a400015a
:0100a5000258
:0100a6000059
:0100a7000058
:0100a8000156
:0100a9000056
:0100aa000352
:0100ab000351
:0100ac000152
:0100ad000250
:0100ae000150
:0100af00014f
:0100b000034c
:0100b100004e
:0100b200024b
:0100b300014b
:0100b4000348
:0100b5000149
:0100b6000346
:0100b7000147
:0100b8000344
:0100b9000244
:0100ba000342
:0100bb000242
:0100bc000142
:0100bd000141
:0100be000140
:0100bf000040
:0100c000033c
:0100c100023c
:0100c200023b
:0100c300023a
:0100c4000338
:0100c5000337
:0100c6000039
:0100c7000038
:0100c8000334
:0100c9000135
:0100ca000233
:0100cb000034
:0100cc000231
:0100cd00032f
:0100ce000031
:0100cf00022e
:0100d000022d
:0100d100022c
:0100d200022b
:0100d3000329
:0100d400002b
:0100d5000228
:0100d6000227
:0100d7000028
:0100d8000126
:0100d9000224
:0100da000124
:0100db000321
:0100dc000023
:0100dd000121
:0100de000021
:0100df00031d
:0100e000011e
:0100e100031b
:0100e200001d
:0100e300021a
:0100e4000219
:0100e5000119
:0100e6000217
:0100e7000216
:0100e8000215
:0100e9000115
:0100ea000114
:0100eb000014
:0100ec000211
:0100ed000012
:0100ee000011
:0100ef00010f
:0100f000000f
:0100f100000e
:0100f200030a
:0100f3000309
:0100f4000209
:0100f5000208
:0100f6000108
:0100f7000305
:0100f8000205
:0100f9000303
:0100fa000104
:0100fb000301
:0100fc000300
:0100fd000101
:0100fe0003fe
:0100ff0001ff
:00000001FF
